:100000000C9430010C9461010C9461010C94610119
:100010000C9461010C9461010C9461010C946101D8
:100020000C9461010C9461010C9461010C946101C8
:100030000C9461010C9461010C9461010C946101B8
:100040000C9461010C9461010C9461010C946101A8
:100050000C9461010C9461010C9461010C941803DF
:100060000C9461010C9461010C9461010C94610188
:100070000C9461010C9461010C9461010C94610178
:100080000C9461010C9461010C9461010C94610168
:100090000C9461010C9461010C9461010C94610158
:1000A0000C9461010C9461010C9461010C94610148
:1000B0000C9461010C9461010C9461010C94610138
:1000C0000C9461010C9461010C9461010C94610128
:1000D0000C9461010C9461010C9461010C94610118
:1000E0000C946101F403F703E603EA03F0032E0422
:1000F000FB03FF03050409040D04130417041B0488
:100100002E042104250429040C94FB030C941704E9
:100110000C94F7030C94AE040C9425040C94860103
:100120000C94FF030C94E6030C942E040C9412031D
:100130000C9421040C9409040C94F0030C940D0409
:100140000C9405040C9429040C94EA030C94F40315
:100150000C941B040C94130400000A0B02090C0DF0
:100160000E0807030401000000000000000000006A
:10017000000000000000000000000000000000007F
:10018000000000001211100000000000000000003C
:10019000000000000000000000000000000001025C
:1001A0001020200808102040102040800201020189
:1001B0000804020101020408102040808040201041
:1001C000080402018004020180402010080402019A
:1001D0000804020101020408102040800102040802
:1001E00010204080050505050705080808080202DB
:1001F00002020A0A080804040404010101010101C1
:1002000001010303030303030303040707070C0CA3
:100210000C0C0C0C0C0C020202020606060606066A
:1002200006060B0B0B0B0B0B0B0B00002200250023
:1002300028002B002E0031003400020100000501CF
:1002400008010B0100002100240027002A002D00D6
:100250003000330001010000040107010A0186019A
:1002600011241FBECFEFD1E2DEBFCDBF00E00CBF37
:1002700012E0A0E0B2E0E0EFFAE000E00BBF02C065
:1002800007900D92A631B107D9F722E0A6E1B2E0BE
:1002900001C01D92A733B207E1F712E0C0E6D2E039
:1002A00000E006C022970109FE010BBF0E94720503
:1002B000CE35D10780E00807A9F70E949F040C946F
:1002C00076050C94000020E042E060E186E192E0D7
:1002D0000E94530260E072E086E192E00C94EC042C
:1002E00041E060E086E192E00E9439020E946203F0
:1002F00028EE33E040E050E00E944A05BA01A9012F
:100300002AE030E086E192E00C943D05AF92CF9276
:10031000EF920F9384E1A82E93E1C92E22E1E22E01
:1003200001E120E14FE06EE086E192E00E94F102FF
:100330000F91EF90CF90AF900895CF93DF93EC01A2
:1003400060E08E810E94680481E090E00E946E036C
:1003500061E08E810E94680481E090E00E946E035B
:1003600060E08E810E94680484E690E0DF91CF9186
:100370000C946E03EF92FF920F931F93CF93DF9332
:100380008C01C0E0D0E0E62EF12CB7010C2E02C0AB
:10039000759567950A94E2F76170F801EC0FFD1FFF
:1003A00087810E9468042196C430D10571F7C80185
:1003B000DF91CF911F910F91FF90EF900C949D01D1
:1003C000EF92FF920F931F93CF93DF938C01C0E0C6
:1003D000D0E0E62EF12CB7010C2E02C07595679582
:1003E0000A94E2F76170F801EC0FFD1F87810E940B
:1003F00068042196C830D10571F7C801DF91CF910B
:100400001F910F91FF90EF900C949D011F93CF933C
:10041000DF93EC01162F642F8C810E9468048D817C
:100420008F3F19F060E00E9468048F85612F84FF80
:1004300006C0CE01DF91CF911F910C94E00170E0D6
:1004400084E0759567958A95E1F7CE010E94BA011F
:10045000612FCE01DF91CF911F910C94BA0140E042
:100460000C94060261E00E942F0280ED97E00C944C
:100470006E03443008F043E0FC012389421710F07A
:100480004FEF420FFC01E40FF11D2489260F206875
:10049000622F0C942F02FC016089262F2460208B90
:1004A0006C600C942F020F931F93CF93DF93EC019A
:1004B000423018F08F8588608F874B8B1C8A80E4D0
:1004C0008D8B6E8B70E0605C7F4F6F8B222329F0E9
:1004D000413019F48F8584608F8761E08C810E94A0
:1004E0002F048D818F3F19F061E00E942F0461E09D
:1004F0008E810E942F0400E010E08F8584FF03C0EE
:1005000088E090E002C084E090E00817190754F4F6
:10051000FE01E00FF11F61E087810E942F040F5F51
:100520001F4FEBCF80E593EC0E946E0360E08C815F
:100530000E94680460E08E810E9468048D818F3F74
:1005400019F060E00E9468046F8564FD1DC063E0DF
:10055000CE010E94BA0184E991E10E946E0363E03A
:10056000CE010E94BA0184E991E10E946E0363E02A
:10057000CE010E94BA0186E990E00E946E0362E01B
:10058000CE010E94BA0116C06062CE010E942F0205
:1005900084E991E10E946E036F856062CE010E9442
:1005A0002F0286E990E00E946E036F856062CE01A3
:1005B0000E942F026F856062CE010E942F0284E0AC
:1005C000888BCE010E944B02CE010E94320282E053
:1005D000898B66E0CE01DF91CF911F910F910C9432
:1005E0002F02AF92CF92EF920F93FC0113821282EF
:1005F00082E192E09183808364834583268307832D
:10060000E086C186A286138614861586168617860E
:1006100020E041E060E1CF010F91EF90CF90AF90EB
:100620000C94530241E00E94060281E090E008959C
:100630001F920F920FB60F9211242F933F938F9317
:100640009F93AF93BF9380912F0290913002A0911E
:100650003102B091320230912E0223E0230F2D3768
:1006600020F40196A11DB11D05C026E8230F0296B6
:10067000A11DB11D20932E0280932F029093300272
:10068000A0933102B09332028091330290913402F0
:10069000A0913502B09136020196A11DB11D809343
:1006A000330290933402A0933502B0933602BF9187
:1006B000AF919F918F913F912F910F900FBE0F900F
:1006C0001F9018952FB7F89460912F027091300207
:1006D00080913102909132022FBF089582309105AE
:1006E00038F0880F991F880F991F05970197F1F728
:1006F0000895789484B5826084BD84B5816084BD9A
:1007000085B5826085BD85B5816085BDEEE6F0E08A
:10071000808181608083E1E8F0E0108280818260E6
:100720008083808181608083E0E8F0E08081816067
:100730008083E1EBF0E0808184608083E0EBF0E097
:10074000808181608083E1E9F0E080818260808344
:10075000808181608083E0E9F0E080818160808336
:10076000E1EAF0E080818260808380818160808323
:10077000E0EAF0E0808181608083E1E2F1E0808165
:1007800082608083808181608083E0E2F1E080810B
:1007900081608083EAE7F0E08081846080838081EB
:1007A0008260808380818160808380818068808393
:1007B0001092C100089590E0FC013197E231F105FB
:1007C00008F04CC0EE58FF4F0C946C0580918000EF
:1007D0008F7703C0809180008F7D80938000089583
:1007E00080918000877FF9CF84B58F7702C084B570
:1007F0008F7D84BD08958091B0008F7703C0809174
:10080000B0008F7D8093B0000895809190008F7725
:1008100007C0809190008F7D03C080919000877FFA
:100820008093900008958091A0008F7707C08091F9
:10083000A0008F7D03C08091A000877F8093A000DF
:100840000895809120018F7707C0809120018F7DCE
:1008500003C080912001877F809320010895CF936A
:10086000DF9390E0FC01E256FE4F2491FC01EC5135
:10087000FE4F8491882349F190E0880F991FFC0175
:10088000EC5BFD4FA591B491865D9D4FFC01C59138
:10089000D4919FB7611108C0F8948C912095822360
:1008A0008C93888182230AC0623051F4F8948C9131
:1008B000322F309583238C938881822B888304C0C8
:1008C000F8948C91822B8C939FBFDF91CF910895E8
:1008D0000F931F93CF93DF931F92CDB7DEB7282FCF
:1008E00030E0F901E85AFE4F8491F901E256FE4FDB
:1008F0001491F901EC51FE4F04910023C9F08823B3
:1009000021F069830E94DB036981E02FF0E0EE0FA4
:10091000FF1FE65DFD4FA591B4919FB7F8948C91B0
:10092000611103C01095812301C0812B8C939FBF5F
:100930000F90DF91CF911F910F91089508950E941C
:1009400079030E949E040E946301C0E0D0E00E94EF
:1009500070012097E1F30E940000F9CFCF92DF925F
:10096000EF92FF920F931F93CF93DF937C016A0165
:10097000EB0100E010E00C151D0571F06991D70145
:10098000ED91FC910190F081E02DC7011995892B23
:1009900019F00F5F1F4FEFCFC801DF91CF911F916B
:1009A0000F91FF90EF90DF90CF9008956115710542
:1009B00081F0DB010D900020E9F7AD0141505109B4
:1009C000461B570BDC01ED91FC910280F381E02D79
:1009D000199480E090E008950C94D6048F929F9231
:1009E000AF92BF92DF92EF92FF920F931F93CF933C
:1009F000DF93CDB7DEB7A1970FB6F894DEBF0FBE79
:100A0000CDBF7C01F42FD52ECB0119A2223008F4E2
:100A10002AE08E010F5D1F4F822E912CA12CB12C4C
:100A20006F2F7D2DA50194010E944A05F22FD32E30
:100A3000CA01015011096A3014F4E0E301C0E7E390
:100A4000E60FD801EC93232B242B252B49F7B80173
:100A5000C7010E94D604A1960FB6F894DEBF0FBE60
:100A6000CDBFDF91CF911F910F91FF90EF90DF905D
:100A7000BF90AF909F908F9008952115310541F45C
:100A8000DC01ED91FC910190F081E02D642F19942F
:100A90000C94EE04A1E21A2EAA1BBB1BFD010DC093
:100AA000AA1FBB1FEE1FFF1FA217B307E407F5071E
:100AB00020F0A21BB30BE40BF50B661F771F881FFA
:100AC000991F1A9469F760957095809590959B0190
:100AD000AC01BD01CF010895EE0FFF1F0590F49109
:100AE000E02D19940790F691E02D1994F894FFCF1A
:100AF00068656C6C6F2C20776F726C64210000004D
:060B000000001203AE0428
:00000001FF
