:100000000C943F010C9470010C9470010C947001DD
:100010000C9470010C9470010C9470010C9470019C
:100020000C9470010C9470010C9470010C9470018C
:100030000C9470010C9470010C9470010C9470017C
:100040000C9470010C9470010C9470010C9470016C
:100050000C9470010C9470010C9470010C94050CBC
:100060000C9470010C94DD0D0C94130E0C94700123
:100070000C9470010C9470010C9470010C9470013C
:100080000C9470010C9470010C9470010C9470012C
:100090000C9470010C9470010C9470010C9470011C
:1000A0000C9470010C9470010C9470010C9470010C
:1000B0000C9470010C9470010C9470010C947001FC
:1000C0000C9470010C9470010C9470010C947001EC
:1000D0000C9470010C9470010C9470010C947001DC
:1000E0000C947001330D360D250D290D2F0D6D0D5E
:1000F0003A0D3E0D440D480D4C0D520D560D5A0D46
:100100006D0D600D640D680D0C9441100C94D510AC
:100110000C94470E0C943E0D0C94560D0C94281024
:100120000C9455100C945A0D0C94520D0C943A0DDD
:100130000C94B3100C94640D0C949A0E0C94F6016C
:100140000C94290D0C94600D0C946D0D0C94680D9D
:100150000C94250D0C944C0D0C94360D0C943D0E06
:100160000C94440D0C94480D0C94330D0C943310E6
:100170000C942F0D00000A0B02090C0D0E0807034A
:10018000040100000000000000000000000000006A
:10019000000000000000000000000000000000005F
:1001A000121110000000000000000000000000001C
:1001B00000000000000000000000010210202008E4
:1001C00008102040102040800201020108040201B2
:1001D0000102040810204080804020100804020121
:1001E000800402018040201008040201080402017A
:1001F0000102040810204080010204081020408001
:1002000005050505070508080808020202020A0A92
:1002100008080404040401010101010101010303B0
:10022000030303030303040707070C0C0C0C0C0C5B
:100230000C0C0202020206060606060606060B0B58
:100240000B0B0B0B0B0B00002200250028002B00D2
:100250002E003100340002010000050108010B01ED
:1002600000002100240027002A002D003000330068
:1002700001010000040107010A01F601470E1124E3
:100280001FBECFEFD1E2DEBFCDBF00E00CBF14E058
:10029000A0E0B2E0E0E2F7E200E00BBF02C00790AE
:1002A0000D92AC3DB107D9F727E0ACEDB4E001C049
:1002B0001D92A63EB207E1F712E0CEE7D2E000E0E1
:1002C00006C022970109FE010BBF0E946211CA37C6
:1002D000D10780E00807A9F70E948B0E0C948E13BB
:1002E0000C94000061E08DE00E946E0D6CED75E0F5
:1002F00080E090E00E947E0C8BED95E00C943D0236
:100300001F93CF93DF93CDB7DEB72C970FB6F8943A
:10031000DEBF0FBECDBF85529B4FFC0110826CED3E
:1003200074E0CE0107960E94D80F64E472E0CE011B
:1003300001960E94D80FBE016F5F7F4FCE010796D6
:100340000E94EE0F182FCE0101960E946A0F112312
:1003500049F061E08DE00E94A70D40E150E066E1C8
:1003600072E01CC067E472E0CE0101960E94D80FD3
:10037000BE016F5F7F4FCE0107960E94EE0F182FD0
:10038000CE0101960E946A0F112361F060E08DE0BA
:100390000E94A70D40E150E066E072E08BED95E031
:1003A0000E949605CE0107960E946A0F2C960FB602
:1003B000F894DEBF0FBECDBFDF91CF911F9108959E
:1003C0008BED95E00E94E904882379F021E030E08C
:1003D0004FEF50E06CED74E08BED95E00E948405EA
:1003E0001816190614F40C9480010895CF92DF9228
:1003F000EF92FF920F931F938BE4C82E82E0D82ECA
:1004000091E5E92E92E0F92E06E212E02EE732E0C5
:100410004AE252E068E372E08BED95E00E94170239
:100420001F910F91FF90EF90DF90CF900895CF92A2
:10043000DF92EF92FF920F931F93CF93DF93EC0124
:10044000798368835B834A833D832C831F830E8378
:10045000F986E886DB86CA860C960E94CE05CE0118
:100460000D960E943B071E86DF91CF911F910F9141
:10047000FF90EF90DF90CF9008950C960E94C006F9
:1004800068EC70E080E090E00C947E0C8F929F927C
:10049000AF92BF92CF92EF920F93CF93DF931F92C1
:1004A0001F92CDB7DEB72FEF3FEF3A8329832DE7B9
:1004B0002F931F929E012F5F3F4F3F932F9322E078
:1004C000822E912CA12CB12CC12CE12C03E320EC29
:1004D00040E00D960E94B30989819A810F900F9098
:1004E0000F900F900F900F90DF91CF910F91EF90A1
:1004F000CF90BF90AF909F908F9008958F929F92D2
:10050000AF92BF92CF92EF920F93D9010D9000203E
:10051000E9F74D01821A930A7DE77F931F923F937B
:100520002F935A01C12CE12C04E320E440E00D9606
:100530000E94B3090F900F900F900F900F91EF90C2
:10054000CF90BF90AF909F908F9008956F927F92C1
:100550008F929F92AF92BF92CF92EF920F931F9381
:10056000CF93DF93EC01162F0E944602181619064E
:100570000CF052C068E972E085E497E00E94D80E62
:100580002881398140E050E0612FCE010E947E0237
:100590002A813B8141E050E0612FCE010E947E0222
:1005A0002C813D8142E050E0612FCE010E947E020D
:1005B0002E813F8143E050E0612FCE010E947E02F8
:1005C0002885398544E050E0612FCE010E947E02EB
:1005D0002A853B8545E050E0612FCE010E947E02D6
:1005E0003E018DE0680E711C8DE78F931F921F9264
:1005F0001F92812C912CA12CB12CC12CE12C05E354
:1006000020E440E0612FC3010E94B3090F900F90D6
:100610000F900F902C9608C06EEB72E085E497E087
:100620000E94D80E80E00DC0C3010E9448078231AD
:1006300039F0CE010E940A07C3010E94DA0AF4CF02
:1006400081E0DF91CF911F910F91EF90CF90BF90FC
:10065000AF909F908F907F906F9008952F923F92D0
:100660004F925F926F927F928F929F92AF92BF92C2
:10067000CF92EF92FF920F931F93CF93DF93CDB75B
:10068000DEB727970FB6F894DEBF0FBECDBF1C01B3
:10069000162F5A8349832901875B9F4F9F838E833F
:1006A000D1011D96BC83AB837DE7F72EFF921F928D
:1006B0009F938F93E4E08E2E912CA12CB12CF2E02D
:1006C000CF2EE12C06E020E840E08B819C810E9447
:1006D000B3090F900F900F900F90882319F066EEDA
:1006E00072E02DC0F101E45BFF4F808190E0782E35
:1006F000662431978081682AB1E06B167B0618F07A
:100700006AE073E01CC0FF921F92EF81EF93FE81BD
:10071000FF934301A12CB12C52E0C52EE12C06E041
:1007200020E840E0612F8B819C810E94B3090F90EB
:100730000F900F900F90882339F067E273E085E403
:1007400097E00E94D80E80C0A981BA811C92F20164
:1007500010828301075B1F4F020D131D30E4F32E3F
:1007600040E1342E8E819F818017910708F053C09D
:10077000AE81BF812C9011962C91243039F0253018
:1007800061F0223091F564E473E002C061E573E04A
:1007900085E497E00E94D80E37C0E981FA81808114
:1007A000811106C0AE81BF8112968C9187FD05C074
:1007B000F2018081811128C002C0E981FA8130975D
:1007C00019F1AE81BF8112968C9112978F77808339
:1007D00013968C911397818314968D919C91159704
:1007E00093838283F58236820FC061E673E085E4ED
:1007F00097E02D830E94D80E40E150E02D81622FBA
:1008000085E497E00E94530FEE81FF81E20DF11D18
:10081000FF83EE83A7CFA981BA818C91882321F031
:10082000F2018081811106C063E773E085E497E0FF
:100830000E94DE0EA981BA818C91882329F081E083
:10084000F2019081911101C080E027960FB6F894D3
:10085000DEBF0FBECDBFDF91CF911F910F91FF90F3
:10086000EF90CF90BF90AF909F908F907F906F90C0
:100870005F904F903F902F9008956F927F928F924C
:100880009F92AF92BF92CF92DF92EF92FF920F931F
:100890001F93CF93DF93CDB7DEB72E970FB6F894A3
:1008A000DEBF0FBECDBF8C019E012F5F3F4FAE015B
:1008B000485F5F4F61E00E942E03D82E882309F421
:1008C00072C0780181E1E80EF11C88E3F701119212
:1008D0008A95E9F7688597E0D801969FA00DB11D2C
:1008E00011245196FE013896892F01900D928A9518
:1008F000E1F78981861761F0D801989FA00DB11D9D
:1009000011245196FE01319601900D929A95E1F7CE
:10091000F8016787808B40E150E085E497E00E9412
:10092000530F40E150E0698185E497E00E94530F46
:100930003801FDE06F0E711C40E060E0C3010E94D1
:100940004E0727E0FC01D801519601900D922A959F
:10095000E1F7A70161E0C3010E945E078DE78F9375
:100960001F921F921F92812C912CA12CB12CC12C73
:10097000EE24E39409E020E040E061E0C3010E943E
:10098000B3090F900F900F900F90882341F062E908
:1009900073E085E497E00E94D80ED12C04C060E992
:1009A000C3010E944B078D2D2E960FB6F894DEBF23
:1009B0000FBECDBFDF91CF911F910F91FF90EF90B0
:1009C000DF90CF90BF90AF909F908F907F906F906F
:1009D00008954F925F926F927F928F929F92AF9203
:1009E000BF92CF92EF920F931F93CF93DF93EC01BF
:1009F0000C960E940A073E012DE0620E711CC30195
:100A00000E94DA0A1E85111148C0C3010E944807DE
:100A100087FF43C0C3010E9448078039F1F16BEEA4
:100A200073E085E497E00E94D80E61E074E085E40D
:100A300097E00E94D80E8DE78F931F922E01F9E464
:100A40004F0E511C5F924F92A2E18A2E912CA12C45
:100A5000B12CCC24C394E12C06E020E840E061E016
:100A6000C3010E94B3090F900F900F900F9088233D
:100A700039F069EA73E085E497E00E94D80E34C04B
:100A8000F20180859185813D9841C1F4F201828512
:100A900093859D52029790F41CC0C3010E944807A1
:100AA000823151F48E85882331F06FED73E085E457
:100AB00097E00E94DE0E1E861E8516C060E274E07E
:100AC00085E497E00E94D80E61E0CE010E94A60264
:100AD000F3CF61E574E085E497E00E94D80ECE0183
:100AE0000E943D048E87E8CF812FDF91CF911F9127
:100AF0000F91EF90CF90BF90AF909F908F907F908D
:100B00006F905F904F900895EF92FF920F931F9315
:100B100079018B019A01FC01478561E00D960E94E5
:100B2000400A1F910F91FF90EF900895EF92FF926E
:100B30000F931F93CF93DF93EA01E12CBDE7FB2EC8
:100B40008B019A01FC01408961E00D960E946907C2
:100B5000CE01DF91CF911F910F91FF90EF900895FB
:100B6000811104C0809105018B7F03C08091050134
:100B700084608093050108958CB186FB882780F9F5
:100B800008956E98E4E0F1E080818460808361E004
:100B900085E30E94A70D81E00C94B00561E084E339
:100BA0000E946E0D61E083E30E946E0D60E082E3BF
:100BB0000E946E0D61E085E30E946E0D80E58CBDA4
:100BC00081E08DBD8DB58EB50C94C1058091240753
:100BD0000895CF93DF93D82FC62F60E085E30E945E
:100BE000A70DD260DEBD0DB407FEFDCFCEBD0DB4A6
:100BF00007FEFDCF61E085E3DF91CF910C94A70D57
:100C0000EF92FF920F931F93CF93DF931F92CDB775
:100C1000DEB7162F790160E085E349830E94A70DB6
:100C200012601EBDF7014981842F815030F00DB450
:100C300007FEFDCF91919EBDF8CF8701040F111DD6
:100C40000DB407FEFDCF61E085E30E94A70DC8014A
:100C50000F90DF91CF911F910F91FF90EF9008952A
:100C6000CF93C62F60E085E30E94A70DCEBD0DB4E3
:100C700007FEFDCF1EBC0DB407FEFDCF61E085E38E
:100C80000E94A70D8EB5CF910895EF92FF920F931A
:100C90001F93CF93DF931F92CDB7DEB7162F790145
:100CA00060E085E349830E94A70D1EBD49810DB414
:100CB00007FEFDCFF701842F882341F01EBC815031
:100CC0000DB407FEFDCF9EB59193F6CF8701040FBB
:100CD000111D61E085E30E94A70DC8010F90DF910F
:100CE000CF911F910F91FF90EF900895CF93DF93D5
:100CF000EC0160E288E70E94E90560E088E70E9475
:100D0000E90568E6CE010E94300680FFFACF81E057
:100D1000DF91CF910895CF93DF93EC0168EF0E94AC
:100D20003006807C8034E1F048F4811126C061ED0A
:100D300088ED0E94E905109224071FC0803821F039
:100D4000803CD9F481E017C068EDCE010E943006E6
:100D500081FD0CC069EC88ED0E94E90582E00BC0C2
:100D600068EDCE010E94300681FDF4CF6BEC88ED7A
:100D70000E94E90583E080932407DF91CF910895D5
:100D8000CF93DF93EC016AE188E80E94E905CE0188
:100D90000E947606811106C060E774E085E497E062
:100DA0000E94DE0E61ED88ED0E94E90560E680EDAF
:100DB0000E94E90564E088EE0E94E90568EECE0134
:100DC0000E94300682FFFACFCE010E948B0660E2BD
:100DD00088EC0E94E90561E080E8DF91CF910C94F6
:100DE000E905CF93DF93EC0168EC0E94300685FFA4
:100DF00005C0CE010E948B06C0E201C0C0E06C2F8E
:100E000088EC0E94E9058C2FDF91CF91089560EB6B
:100E10000C9430061F93CF93DF93EC010E94BC0526
:100E2000811105C0CE010E94F106182F01C010E00B
:100E3000CE010E940707812FDF91CF911F91089566
:100E4000109233071092350710923407109236072C
:100E50001092380710923707109239078AE297E00C
:100E6000909332078093310780E480932F0780E1CD
:100E7000809330070895CF93DF93EC010E94CE0555
:100E800081E180933A07CE01DF91CF910C94200746
:100E900080913A07089560933A07089570E0FB0146
:100EA000EE0FFF1FE60FF71FEF5CF84F8081918177
:100EB00027E0429F800D911D1124089570E0FB01F1
:100EC000EE0FFF1FE60FF71FEF5CF84F51834083D3
:100ED00008952F923F924F925F926F927F928F92DE
:100EE0009F92AF92BF92CF92DF92EF92FF920F93B9
:100EF0001F93CF93DF93CDB7DEB72C970FB6F8943F
:100F0000DEBF0FBECDBF9C878B87742E6901FA862A
:100F1000E986862E912CA7E04A9FC00111249B836D
:100F20008A83F401EE0FFF1FFD83EC837F01E80C41
:100F3000F91CC7018F5C984F7C01DC01ED91FC919D
:100F40008A819B81E80FF91FA280B3800E944F0C19
:100F50001B012C01AA2009F46FC0D701ED91FC916F
:100F60008A819B81E80FF91F658188EE0E94E9055F
:100F7000D501BB27BF83AE83B72DB062B8873201DE
:100F80002101E8E84E0EE3E15E1E611C711CC114F4
:100F9000D104C1F176018E819F818C159D0508F4E5
:100FA0007C012E2C98014E2D60E18B859C850E9442
:100FB00000066E2D88E30E94E905688580EF0E9497
:100FC000E90568EC8B859C850E94300687FFF9CF88
:100FD00060E888EC0E94E90568EF8B859C850E949B
:100FE00030068F708983A12CB12C312CB981BB23A1
:100FF00009F462C00E944F0C6415750586059705BB
:10100000E8F05AC0EC81FD81E80DF91DEF5CF84F66
:1010100000811181EA81FB810E0F1F1F68EF8B8514
:101020009C850E94300685FF02C080E801C080E4F4
:10103000D80115968C9307C08EEF43C0B981B430A8
:1010400021F0BE3099F189813CC09FEFA91AB90AFD
:10105000A985BA85AB2B21F0A114BDE7BB0621F110
:1010600060E088E30E94E905D8016C9180E10E946C
:10107000E905622D88E30E94E905688580EF0E94FA
:10108000E90568EC8B859C850E94300687FFF9CFC7
:1010900060E888EC0E94E90568EF8B859C850E94DA
:1010A00030068F708983A2CF84E00BC03394E3E0D5
:1010B0003E12D6CF8EE005C0CE18DF080E0D1F1DE4
:1010C00066CF2C960FB6F894DEBF0FBECDBFDF9172
:1010D000CF911F910F91FF90EF90DF90CF90BF9035
:1010E000AF909F908F907F906F905F904F903F90C8
:1010F0002F9008954F925F927F928F929F92AF921E
:10110000BF92CF92DF92EF92FF920F931F93CF93F4
:10111000DF931F92CDB7DEB75C01862E890149832C
:101120000E944F0C6B017C0188E8C80E83E1D81E39
:10113000E11CF11C912C412C512C4981842A0E94E4
:101140004F0C6C157D058E059F05A8F5682D80EF69
:101150000E94E9050E944F0C6C157D058E059F05C8
:10116000B8F468ECC5010E94300687FFF3CF60E851
:1011700088EC0E94E90568EFC5010E9430068F7077
:10118000782EE4E08E1731F0FEE08F1771F013C077
:101190008FEF12C08FEF481A580A0115110579F226
:1011A0004016510661F684E007C09394E3E09E1276
:1011B000C6CF8EE001C0872D0F90DF91CF911F9198
:1011C0000F91FF90EF90DF90CF90BF90AF909F90E6
:1011D0008F907F905F904F900895442319F0462F91
:1011E00060EA02C0462F60E80C947A082F923F9282
:1011F0004F925F926F927F928F929F92AF92BF9227
:10120000CF92DF92EF92FF920F931F93CF93DF93D2
:1012100000D0CDB7DEB79B838A83342E29013701F6
:10122000E62EF12C87E0489F600111245701AA0C9B
:10123000BB1CF501EE0DFF1DEF5CF84F0190F08136
:10124000E02DEC0DFD1D2280668188EE0E94E905EF
:10125000812C912C9301432D60E08A819B810E9417
:101260007A0881113AC068EC8A819B810E9430061D
:1012700082FF32C060E38A819B810E943006582F32
:101280009801482F68E08A819B8159830E94450616
:101290008C0164E088EC0E94E9055981850E911C5F
:1012A000521518F084149504A8F268EF8A819B8186
:1012B0000E943006F501EE0DFF1DEF5CF84F019026
:1012C000F081E02DEC0DFD1D84FF02C080E201C025
:1012D00080E1868380E001C080EF0F900F900F9037
:1012E000DF91CF911F910F91FF90EF90DF90CF9002
:1012F000BF90AF909F908F907F906F905F904F9036
:101300003F902F900895CF92DF92EF92FF920F932C
:101310001F93CF93DF935E2D7601A62FB0E077E089
:10132000479FE0011124FD01EE0FFF1FEA0FFB1F95
:10133000EF5CF84F0190F081E02DEC0FFD1F55237D
:1013400029F050E256830E94F60804C050E8558305
:101350000E946907DF91CF911F910F91FF90EF904D
:10136000DF90CF9008954F925F926F927F928F920D
:101370009F92AF92BF92CF92DF92EF92FF920F9324
:101380001F93CF93DF93CDB7DEB729970FB6F894AD
:10139000DEBF0FBECDBF3C01562EF42ED02E0D8DDC
:1013A0001E8D80EE29870E94E9052985422E441C66
:1013B0004424441C2983DA82EB82CC82BE82AD8233
:1013C00098868F829E012F5F3F4F48E060E2C30105
:1013D0000E9400062F8D38A14F2D60E1C3010E94AD
:1013E0007A08B82E882379F061E974E085E497E003
:1013F0000E94D80E40E150E06B2D85E497E00E94FA
:101400004C0F8B2D26C001151105E1F0C12CEDE725
:10141000DE2EE42C94014F2D652DC3010E9483091B
:10142000182F882379F066EA74E085E497E00E943B
:10143000D80E40E150E0612F85E497E00E944C0F08
:10144000812F07C020E03DE7442D6F2DC3010E948E
:10145000ED0829960FB6F894DEBF0FBECDBFDF9121
:10146000CF911F910F91FF90EF90DF90CF90BF90A1
:10147000AF909F908F907F906F905F904F90089566
:101480002F923F924F925F926F927F928F929F9294
:10149000AF92BF92CF92DF92EF92FF920F931F9382
:1014A000CF93DF9300D0CDB7DEB79B838A83342EF2
:1014B00029013701C62ED12C87E0489F5001112405
:1014C0004601880C991CF401EC0DFD1DEF5CF84FF2
:1014D0000190F081E02DEA0DFB1D2280668188EEEF
:1014E0000E94E905E12CF12C9301432D60E08A81F3
:1014F0009B810E947A08882319F08FEF9FEF44C0E8
:1015000068EC8A819B810E94300682FFF6CF60E3FF
:101510008A819B810E943006582F9801482F68E0ED
:101520008A819B8159830E9445068C0164E088EC86
:101530000E94E9055981E50EF11C521598F468EFF7
:101540008A819B810E94300684FF11C0F401EC0D5A
:10155000FD1DEF5CF84F0190F081E02DEA0DFB1DC1
:1015600080E210C0E414F50408F4BECFE8CFF40123
:10157000EC0DFD1DEF5CF84F0190F081E02DEA0DC0
:10158000FB1D80E18683C7010F900F900F90DF91C4
:10159000CF911F910F91FF90EF90DF90CF90BF9070
:1015A000AF909F908F907F906F905F904F903F9003
:1015B0002F9008956F927F928F929F92AF92BF92D9
:1015C000CF92DF92EF92FF920F931F93CF93DF930F
:1015D000CDB7DEB762970FB6F894DEBF0FBECDBFB2
:1015E0003C010E94E605813039F090913A07813044
:1015F00028F08430E0F407C083E117C0907F903179
:10160000B1F081E112C0907F903189F40E944F0CBB
:1016100068537F4F8F4F9F4F609326077093270724
:10162000809328079093290780E280933A071091CE
:101630003A071034B1F160F41032D9F0103359F197
:10164000113109F0CDC0C3010E94200782E1C6C05C
:10165000103609F45FC0103721F0103509F0C0C012
:1016600041C08091340790913507892B09F0AEC0B5
:1016700082C0C0902607D0902707E0902807F090FE
:1016800029070E944F0CC616D706E806F90608F08F
:10169000A7C080E3A3C061E088EE0E94E90580E472
:1016A0009DC068EEC3010E94300680FD99C068EDC0
:1016B000C3010E943006682F686088ED0E94E9052A
:1016C00080E580933A070E944F0C6C5E7F4F8F4FEE
:1016D0009F4F609326077093270780932807909366
:1016E00029077EC068ECC3010E94300686FF78C0DF
:1016F000C0902607D0902707E0902807F090290790
:101700000E944F0CC616D706E806F90608F068C016
:1017100080E664C0E0913107F091320788E090E004
:10172000938382838DE78F931F92CE0101969F93BF
:101730008F93A8E08A2E912CA12CB12CCC24C39499
:10174000E12C06E020E840E060E0C3010E94B3091C
:101750000F900F900F900F9081110AC0E091310708
:10176000F0913207888590E09383828380E736C0CA
:1017700010933B0732C080913107909132079093CC
:101780003507809334078DE78F931F921F921F9226
:10179000812C912CA12CB12CC12CEE24E39405E0DA
:1017A00020E040E060E0C3010E94B3090F900F9079
:1017B0000F900F90811105C081E08093250780E88C
:1017C00003C010933B0780EA80933A0780913A0761
:1017D000803731F48EEF80933B0780EA80933A079D
:1017E00062960FB6F894DEBF0FBECDBFDF91CF91EA
:1017F0001F910F91FF90EF90DF90CF90BF90AF902F
:101800009F908F907F906F9008951F920F920FB6C8
:101810000F9211242F933F938F939F93AF93BF9376
:1018200080913D0790913E07A0913F07B0914007FE
:1018300030913C0723E0230F2D3720F40196A11DA2
:10184000B11D05C026E8230F0296A11DB11D2093EE
:101850003C0780933D0790933E07A0933F07B093CA
:1018600040078091410790914207A0914307B091B2
:1018700044070196A11DB11D809341079093420733
:10188000A0934307B0934407BF91AF919F918F916D
:101890003F912F910F900FBE0F901F9018952FB76B
:1018A000F89460913D0770913E0780913F079091B9
:1018B00040072FBF08953FB7F8948091410790915A
:1018C0004207A0914307B091440726B5A89B05C0E5
:1018D0002F3F19F00196A11DB11D3FBF6627782F3C
:1018E000892F9A2F620F711D811D911D42E0660F95
:1018F000771F881F991F4A95D1F708958F929F925D
:10190000AF92BF92CF92DF92EF92FF926B017C0178
:101910000E945B0C4B015C01C114D104E104F10491
:10192000F1F00E9427100E945B0C681979098A095E
:101930009B09683E73408105910570F321E0C21A4E
:10194000D108E108F10888EE880E83E0981EA11CFA
:10195000B11CC114D104E104F10429F7DDCFFF90DB
:10196000EF90DF90CF90BF90AF909F908F900895B1
:10197000789484B5826084BD84B5816084BD85B56A
:10198000826085BD85B5816085BDEEE6F0E0808131
:1019900081608083E1E8F0E0108280818260808352
:1019A000808181608083E0E8F0E0808181608083D5
:1019B000E1EBF0E0808184608083E0EBF0E0808107
:1019C00081608083E1E9F0E08081826080838081B2
:1019D00081608083E0E9F0E0808181608083E1EADA
:1019E000F0E0808182608083808181608083E0EA92
:1019F000F0E0808181608083E1E2F1E080818260BB
:101A00008083808181608083E0E2F1E08081816079
:101A10008083EAE7F0E08081846080838081826057
:101A20008083808181608083808180688083109240
:101A3000C100089590E0FC013197E231F10508F012
:101A40004CC0EE58FF4F0C945C11809180008F7752
:101A500003C0809180008F7D8093800008958091E5
:101A60008000877FF9CF84B58F7702C084B58F7DE2
:101A700084BD08958091B0008F7703C08091B0003D
:101A80008F7D8093B0000895809190008F7707C07C
:101A9000809190008F7D03C080919000877F80931C
:101AA000900008958091A0008F7707C08091A000DA
:101AB0008F7D03C08091A000877F8093A000089550
:101AC000809120018F7707C0809120018F7D03C016
:101AD00080912001877F809320010895CF93DF9329
:101AE00090E0FC01E654FE4F2491FC01E050FE4FD3
:101AF0008491882349F190E0880F991FFC01E05AF6
:101B0000FD4FA591B4918A5B9D4FFC01C591D49185
:101B10009FB7611108C0F8948C91209582238C9313
:101B2000888182230AC0623051F4F8948C91322F5C
:101B3000309583238C938881822B888304C0F8940A
:101B40008C91822B8C939FBFDF91CF9108950F933F
:101B50001F93CF93DF931F92CDB7DEB7282F30E0CE
:101B6000F901EC58FE4F8491F901E654FE4F1491AF
:101B7000F901E050FE4F04910023C9F0882321F0C1
:101B800069830E941A0D6981E02FF0E0EE0FFF1FBC
:101B9000EA5BFD4FA591B4919FB7F8948C916111C8
:101BA00003C01095812301C0812B8C939FBF0F90A0
:101BB000DF91CF911F910F9108951F920F920FB651
:101BC0000F9211240BB60F922F938F939F93EF9345
:101BD000FF93E0915507F09156078081E0915B07F4
:101BE000F0915C0782FD12C0908180915E078F5F4B
:101BF0008F7320915F07821751F0E0915E07F0E04C
:101C0000EB5BF84F958F80935E0701C08081FF9159
:101C1000EF919F918F912F910F900BBE0F900FBE60
:101C20000F901F9018951F920F920FB60F921124CC
:101C30000BB60F922F933F934F935F936F937F93C6
:101C40008F939F93AF93BF93EF93FF9385E497E0B8
:101C50000E949210FF91EF91BF91AF919F918F9150
:101C60007F916F915F914F913F912F910F900BBE9C
:101C70000F900FBE0F901F90189585E497E00E947B
:101C8000281021E0892B09F420E0822F089510927A
:101C900048071092470788EE93E0A0E0B0E08093F9
:101CA000490790934A07A0934B07B0934C078FECDA
:101CB00094E0909346078093450785EC90E09093DD
:101CC00052078093510784EC90E0909354078093DF
:101CD000530780EC90E0909356078093550781EC72
:101CE00090E0909358078093570782EC90E0909390
:101CF0005A078093590786EC90E090935C07809395
:101D00005B0710925E0710925F07109260071092B7
:101D10006107089508950E94B80C0E948A0E0E94DF
:101D20007201C5E5D0E10E94E0012097E1F30E9435
:101D30005510F9CFCF92DF92EF92FF920F931F933E
:101D4000CF93DF937C016A01EB0100E010E00C15FA
:101D50001D0571F06991D701ED91FC910190F08121
:101D6000E02DC7011995892B19F00F5F1F4FEFCF99
:101D7000C801DF91CF911F910F91FF90EF90DF90FD
:101D8000CF9008956115710581F0DB010D90002061
:101D9000E9F7AD0141505109461B570BDC01ED91AC
:101DA000FC910280F381E02D199480E090E0089589
:101DB0000C94C20E6AEB74E00C94C20E0F931F9346
:101DC000CF93DF93EC010E94C20E8C01CE010E94E2
:101DD000DA0E800F911FDF91CF911F910F9108951F
:101DE0008F929F92AF92BF92DF92EF92FF920F93EA
:101DF0001F93CF93DF93CDB7DEB7A1970FB6F894BB
:101E0000DEBF0FBECDBF7C01F42FD52ECB0119A2B2
:101E1000223008F42AE08E010F5D1F4F822E912C94
:101E2000A12CB12C6F2F7D2DA50194010E943A1198
:101E3000F22FD32ECA01015011096A3014F4E0E3E5
:101E400001C0E7E3E60FD801EC93232B242B252BCD
:101E500049F7B801C7010E94C20EA1960FB6F894C7
:101E6000DEBF0FBECDBFDF91CF911F910F91FF90CD
:101E7000EF90DF90BF90AF909F908F9008952115C5
:101E8000310541F4DC01ED91FC910190F081E02DF0
:101E9000642F19940C94F00E9A01462F50E060E0E4
:101EA00070E00C943F0F0F931F93CF93DF93EC01DF
:101EB0009A01462F50E060E070E00E943F0F8C01D5
:101EC000CE010E94DA0E800F911FDF91CF911F91FA
:101ED0000F910895FC01808191810C94FE11CF93A4
:101EE000DF93EC0188819981009711F00E94FE1127
:101EF000198218821D821C821B821A82DF91CF9167
:101F000008950F931F93CF93DF93EC018B016F5FC5
:101F10007F4F888199810E948D12009731F09983BB
:101F200088831B830A8381E001C080E0DF91CF9129
:101F30001F910F910895CF93DF93EC0188819981D0
:101F4000892B29F08A819B818617970760F4CE013F
:101F50000E94810F882341F08C819D81892B19F487
:101F6000E881F981108281E0DF91CF910895EF92AD
:101F7000FF920F931F93CF93DF93EC017B018A01B4
:101F8000BA010E949B0F811104C0CE010E946F0F05
:101F900007C01D830C83B701888199810E94871334
:101FA000CE01DF91CF911F910F91FF90EF90089597
:101FB000FC01118210821382128215821482611533
:101FC000710559F0FB0101900020E9F7AF01415084
:101FD0005109461B570B0C94B70F0895EF92FF92CF
:101FE0000F931F93CF93DF938617970731F1FC016F
:101FF00024813581FB014481558124173507F9F48B
:10200000232BD9F0FC0100811181FB01C081D1811A
:10201000F80181918F01882381F0992787FD9095A0
:102020000E9476137C018991992787FD90950E94E3
:102030007613E816F90661F302C081E001C080E082
:10204000DF91CF911F910F91FF90EF900895089528
:10205000FC01818D228D90E0805C9F4F821B910955
:102060008F7399270895FC01918D828D981731F017
:10207000828DE80FF11D858D90E008958FEF9FEF21
:102080000895FC01918D828D981761F0828DDF019A
:10209000A80FB11D5D968C91928D9F5F9F73928F5B
:1020A00090E008958FEF9FEF08958DE39EE0892BD8
:1020B00041F080E090E0892B21F00E943D0E8111DB
:1020C00025C080E090E0892B41F080E090E0892BF2
:1020D00021F00E94000081111CC080E090E0892B5B
:1020E00041F080E090E0892B21F00E9400008111F6
:1020F00013C080E090E0892BA1F080E090E0892B74
:1021000081F00E94000081110AC008950E94000021
:10211000D8CF0E940000E1CF0E940000EACF0C94CB
:1021200000000895FC01848DDF01A80FB11DA35AA2
:10213000BF4F2C91848D90E001968F739927848FE7
:10214000A689B7892C93A089B1898C9180648C93DE
:10215000938D848D981306C00288F389E02D8081C9
:102160008F7D80830895CF93DF93EC01888D882342
:10217000C9F0EA89FB89808185FD05C0A889B989F4
:102180008C9186FD0FC00FB607FCF5CF808185FFCF
:10219000F2CFA889B9898C9185FFEDCFCE010E943D
:1021A0009210E7CFDF91CF910895CF92DF92FF9207
:1021B0000F931F93CF93DF931F92CDB7DEB76C01C0
:1021C00081E0D60158968C9358975B969C915B97CB
:1021D0005C968C915C97981307C05096ED91FC919A
:1021E0005197808185FD2EC0F601038D10E00F5FB1
:1021F0001F4F0F731127F02EF601848DF81211C0B6
:102200000FB607FCF9CFD6015096ED91FC9151978E
:10221000808185FFF1CFC60169830E949210698198
:10222000EBCF838DE80FF11DE35AFF4F6083D6019A
:102230005B960C935B975296ED91FC91539780813E
:1022400080620CC0D6015696ED91FC915797608341
:102250005096ED91FC91519780818064808381E05C
:1022600090E00F90DF91CF911F910F91FF90DF9041
:10227000CF900895A1E21A2EAA1BBB1BFD010DC031
:10228000AA1FBB1FEE1FFF1FA217B307E407F50726
:1022900020F0A21BB30BE40BF50B661F771F881F02
:1022A000991F1A9469F760957095809590959B0198
:1022B000AC01BD01CF010895EE0FFF1F0590F49111
:1022C000E02D19940790F691E02D1994CF93DF93A8
:1022D0008230910510F482E090E0E091E407F09103
:1022E000E50720E030E0A0E0B0E0309739F1408130
:1022F000518148175907B8F04817590771F482817E
:102300009381109729F013969C938E9312972CC06B
:102310009093E5078093E40727C02115310531F03C
:102320004217530718F0A901DB0101C0EF019A0120
:10233000BD01DF010280F381E02DD7CF21153105EA
:10234000F9F0281B390B2430310580F48A819B81F8
:102350006115710521F0FB019383828304C0909382
:10236000E5078093E407FE01329644C0FE01E20FC8
:10237000F31F8193919322503109398328833AC006
:102380002091E2073091E307232B41F420910202D0
:10239000309103023093E3072093E207209100027B
:1023A000309101022115310541F42DB73EB740911E
:1023B000040250910502241B350BE091E207F091D5
:1023C000E307E217F307A0F42E1B3F0B281739078A
:1023D00078F0AC014E5F5F4F2417350748F04E0F81
:1023E0005F1F5093E3074093E2078193919302C0EC
:1023F000E0E0F0E0CF01DF91CF910895CF93DF933C
:10240000009709F487C0FC01329713821282C091B1
:10241000E407D091E507209781F420813181280FCE
:10242000391F8091E2079091E3078217930779F5AE
:10243000F093E307E093E2076DC0DE0120E030E0B7
:10244000AE17BF0750F412964D915C9113979D0102
:102450004115510509F1DA01F3CFB383A28340811D
:102460005181840F951F8A179B0771F48D919C9160
:102470001197840F951F02969183808312968D91F8
:102480009C911397938382832115310529F4F0934E
:10249000E507E093E4073EC0D9011396FC93EE9361
:1024A00012974D915D91A40FB51FEA17FB0779F4C0
:1024B00080819181840F951F0296D90111969C937A
:1024C0008E938281938113969C938E931297E0E072
:1024D000F0E08A819B81009719F0FE01EC01F9CFB1
:1024E000CE01029628813981820F931F2091E20745
:1024F0003091E3072817390769F4309729F41092CF
:10250000E5071092E40702C013821282D093E3071A
:10251000C093E207DF91CF9108956F927F928F92DF
:102520009F92AF92BF92CF92DF92EF92FF920F9362
:102530001F93CF93DF93EC01CB01209781F4DF91C0
:10254000CF911F910F91FF90EF90DF90CF90BF90B0
:10255000AF909F908F907F906F900C946611FE01CA
:10256000E60FF71F9E0122503109E217F30708F426
:10257000ACC0D9010D911C91119706171707B8F03F
:102580000530110508F49FC0A801445051094617B1
:10259000570708F498C002501109061B170B019346
:1025A00011936D937C93CF010E94FE118CC05B014F
:1025B000A01AB10A4E01800E911EA091E407B091BD
:1025C000E507612C712C60E070E0109709F449C0B8
:1025D000A815B905C9F5ED90FC901197670142E087
:1025E000C40ED11CCA14DB0478F147018A189B0879
:1025F000640142E0C40ED11C1296BC90129713964F
:10260000AC91B5E0CB16D10440F0B282A3839182A5
:102610008082D9018D939C9309C00E5F1F4F0E0DD0
:102620001F1DF90111830083EB2DFA2F6115710530
:1026300031F0DB011396FC93EE93129744C0F093B4
:10264000E507E093E4073FC06D917C911197661612
:10265000770608F43B01BD0112960D90BC91A02DA8
:10266000B4CF6091E2077091E30768157905E9F44A
:1026700068167906D0F4409100025091010241158C
:10268000510541F44DB75EB76091040270910502A7
:10269000461B570BE417F507C0F4F093E307E093EC
:1026A000E207F901918380830EC00E9466117C01CC
:1026B000009759F0A801BE010E947E13CE010E942E
:1026C000FE11C70104C0CE0102C080E090E0DF919E
:1026D000CF911F910F91FF90EF90DF90CF90BF901F
:1026E000AF909F908F907F906F9008959111089573
:1026F00081548A5108F4805E855A0895FB01DC01FB
:1027000002C001900D9241505040D8F70895FB014E
:10271000DC0101900D920020E1F70895F894FFCFBD
:102720000000E60780004E6F70652E20204C6F730E
:10273000742069742E0049206861766520616E20DE
:10274000696465612100312E30004D79204C45448B
:1027500020546F67676C6500526F73652D48756C08
:102760006D616E004F4E004F4646003132333435B6
:1027700000687474703A2F2F73697465732E676FD5
:102780006F676C652E636F6D2F736974652F6D6550
:10279000343335737072696E673230313600547578
:1027A000726E696E67204C4544203133206F6E2075
:1027B000616E64206F666600646576696365207388
:1027C0007570706F7274732070726F746F636F6C5A
:1027D0002031206F72206869676865720A00636F34
:1027E000756C64206E6F7420726561642064657618
:1027F0006963652070726F746F636F6C20766572A9
:1028000073696F6E0A0043616E27742067657420D8
:10281000636F6E6669672064657363726970746F55
:1028200072206C656E6774680A00636F6E66696714
:102830002064657363726970746F7220746F6F20A7
:102840006C617267650A0043616E27742067657466
:1028500020636F6E66696720646573637269707464
:102860006F720A00636F6E66696720646573630A3E
:1028700000696E7465726661636520646573630ADE
:1028800000756E6B6F776E2064657363207479706A
:1028900065200063616E27742066696E6420616341
:1028A000636573736F727920656E64706F696E749F
:1028B000730043616E27742073657420636F6E66C6
:1028C000696720746F20310A000A44657669636580
:1028D0002064657363726970746F722063616E6ED9
:1028E0006F74206265207265747269657665642E06
:1028F00020547279696E6720616761696E0A0064AD
:102900006973636F6E6E6563740A000A4465766965
:102910006365206164647265737365642E2E2E2076
:102920000052657175657374696E672064657669B8
:1029300063652064657363726970746F722E0A0038
:10294000666F756E6420706F737369626C65206466
:1029500065766963652E20737769746863696E674D
:1029600020746F2073657269616C206D6F64650AF5
:1029700000666F756E6420616E64726F69642061B9
:10298000636573736F7279206465766963650A00A5
:102990004572726F723A204F53434F4B4952512048
:1029A0006661696C656420746F206173736572740D
:1029B000005365747570207061636B657420657277
:1029C000726F723A200044617461207061636B65BC
:1029D00074206572726F723A20000D0A006E616E8B
:1029E00000696E66006F7666002E0000000000D55C
:0C29F000109A0E281041103310B3100094
:00000001FF
