:100000000C9436010C944A010C944A010C944A0158
:100010000C944A010C944A010C944A010C944A0134
:100020000C944A010C944A010C944A010C944A0124
:100030000C944A010C944A010C944A010C944A0114
:100040000C944A010C944A010C944A010C944A0104
:100050000C944A010C944A010C944A010C949E029F
:100060000C944A010C944A010C944A010C944A01E4
:100070000C944A010C944A010C944A010C944A01D4
:100080000C944A010C944A010C944A010C944A01C4
:100090000C944A010C944A010C944A010C944A01B4
:1000A0000C944A010C944A010C944A010C944A01A4
:1000B0000C944A010C944A010C944A010C944A0194
:1000C0000C944A010C944A010C944A010C944A0184
:1000D0000C944A010C944A010C944A010C944A0174
:1000E0000C944A01BB01BE01AD01B101B701F5019C
:1000F000C201C601CC01D001D401DA01DE01E20166
:10010000F501E801EC01F0010C94BE010C94F00142
:100110000C94F5010C94EC010C94CC010C94BB01F3
:100120000C94E2010C94D4010C94AD010C94E80100
:100130000C94DE010C94DA010C94B7010C94C60106
:100140000C94B1010C94C2010C94D00100000A0B74
:1001500002090C0D0E080703040100000000000056
:10016000000000000000000000000000000000008F
:10017000000000000000000012111000000000004C
:10018000000000000000000000000000000000006F
:10019000000001021020200808102040102040809C
:1001A000020102010804020101020408102040803B
:1001B00080402010080402018004020180402010C9
:1001C0000804020108040201010204081020408012
:1001D00001020408102040800505050507050808F0
:1001E0000808020202020A0A0808040404040101C1
:1001F00001010101010103030303030303030407D6
:1002000007070C0C0C0C0C0C0C0C0202020206066C
:100210000606060606060B0B0B0B0B0B0B0B000062
:1002200020002300260029002C002F0032000001AE
:10023000000003010601090100002200250028003A
:100240002B002E00310034000201000005010801DE
:100250000B0100002100240027002A002D0030009F
:10026000330001010000040107010A0111241FBE2F
:10027000CFEFD1E2DEBFCDBF00E00CBF22E0A0E0B7
:10028000B2E001C01D92A930B207E1F70E948F02CF
:100290000C9450030C94000062E083E00E94F6018D
:1002A00062E082E00E94F60161E080E40E94F601D3
:1002B00061E081E40E94F60161E082E40E94F601BF
:1002C00061E083E40E94F60161E084E40E94F601AB
:1002D00061E085E40C94F60183E00E946502892BBD
:1002E00051F461E080E40E942F0261E081E40E9409
:1002F0002F0261E009C060E080E40E942F0260E00C
:1003000081E40E942F0260E082E40E942F0282E0DA
:100310000E946502892B51F461E083E40E942F0260
:1003200061E084E40E942F0261E009C060E083E4A0
:100330000E942F0260E084E40E942F0260E085E4C6
:100340000C942F0290E0FC013197E231F10508F0A6
:100350004CC0EE58FF4F0C944A03809180008F7779
:1003600003C0809180008F7D8093800008958091EC
:100370008000877FF9CF84B58F7702C084B58F7DE9
:1003800084BD08958091B0008F7703C08091B00044
:100390008F7D8093B0000895809190008F7707C083
:1003A000809190008F7D03C080919000877F809323
:1003B000900008958091A0008F7707C08091A000E1
:1003C0008F7D03C08091A000877F8093A000089557
:1003D000809120018F7707C0809120018F7D03C01D
:1003E00080912001877F809320010895CF93DF9330
:1003F00090E0FC01EE56FE4F2491FC01E852FE4FC6
:100400008491882349F190E0880F991FFC01EE5AEE
:10041000FD4FA591B491885C9D4FFC01C591D4918D
:100420009FB7611108C0F8948C91209582238C931A
:10043000888182230AC0623051F4F8948C91322F63
:10044000309583238C938881822B888304C0F89411
:100450008C91822B8C939FBFDF91CF9108950F9346
:100460001F93CF93DF931F92CDB7DEB7282F30E0D5
:10047000F901E45BFE4F8491F901EE56FE4F1491B1
:10048000F901E852FE4F04910023C9F0882321F0BE
:1004900069830E94A2016981E02FF0E0EE0FFF1F47
:1004A000E85CFD4FA591B4919FB7F8948C916111D0
:1004B00003C01095812301C0812B8C939FBF0F90A7
:1004C000DF91CF911F910F910895CF93DF93282F44
:1004D00030E0F901E45BFE4F8491F901EE56FE4FE6
:1004E000D491F901E852FE4FC491CC2391F08111CF
:1004F0000E94A201EC2FF0E0EE0FFF1FE25EFD4F25
:10050000A591B4912C912D2381E090E021F480E01D
:1005100002C080E090E0DF91CF91089508950E949D
:10052000E8020E948E020E944C01C0E0D0E00E94CE
:100530006C012097E1F30E940000F9CF1F920F9207
:100540000FB60F9211242F933F938F939F93AF93E6
:10055000BF938091010290910202A0910302B09199
:1005600004023091000223E0230F2D3720F401967E
:10057000A11DB11D05C026E8230F0296A11DB11DC6
:10058000209300028093010290930202A093030241
:10059000B09304028091050290910602A091070297
:1005A000B09108020196A11DB11D809305029093A0
:1005B0000602A0930702B0930802BF91AF919F91EA
:1005C0008F913F912F910F900FBE0F901F90189514
:1005D000789484B5826084BD84B5816084BD85B51E
:1005E000826085BD85B5816085BDEEE6F0E08081E5
:1005F00081608083E1E8F0E0108280818260808306
:10060000808181608083E0E8F0E080818160808388
:10061000E1EBF0E0808184608083E0EBF0E08081BA
:1006200081608083E1E9F0E0808182608083808165
:1006300081608083E0E9F0E0808181608083E1EA8D
:10064000F0E0808182608083808181608083E0EA45
:10065000F0E0808181608083E1E2F1E0808182606E
:100660008083808181608083E0E2F1E0808181602D
:100670008083EAE7F0E0808184608083808182600B
:1006800080838081816080838081806880831092F4
:10069000C1000895EE0FFF1F0590F491E02D19940D
:0406A000F894FFCFFC
:00000001FF
