:100000000C9429010C944A010C944A010C944A0165
:100010000C944A010C944A010C944A010C944A0134
:100020000C944A010C944A010C944A010C944A0124
:100030000C944A010C944A010C944A010C944A0114
:100040000C944A010C944A010C944A010C944A0104
:100050000C944A010C944A010C944A010C948F01AF
:100060000C944A010C944A010C944A010C944A01E4
:100070000C944A010C944A010C944A010C944A01D4
:100080000C944A010C944A010C944A010C944A01C4
:100090000C944A010C944A010C944A010C944A01B4
:1000A0000C944A010C944A010C944A010C944A01A4
:1000B0000C944A010C944A010C944A010C944A0194
:1000C0000C944A010C944A010C944A010C944A0184
:1000D0000C944A010C944A010C944A010C944A0174
:1000E0000C944A01B102B402A302A702AD02EB02D2
:1000F000B802BC02C202C602CA02D002D402D802AE
:10010000EB02DE02E202E6020C94AD020C94A302C2
:100110000C94D8020C94D4020C94B8020C94BC0237
:100120000C94C6020C94EB020C94A7020C94B1023E
:100130000C94C2020C94CA020C94DE020C94E602E7
:100140000C94D0020C94B4020C94E20200000A0B4E
:1001500002090C0D0E080703040100000000000056
:10016000000000000000000000000000000000008F
:10017000000000000000000012111000000000004C
:10018000000000000000000000000000000000006F
:10019000000001021020200808102040102040809C
:1001A000020102010804020101020408102040803B
:1001B00080402010080402018004020180402010C9
:1001C0000804020108040201010204081020408012
:1001D00001020408102040800505050507050808F0
:1001E0000808020202020A0A0808040404040101C1
:1001F00001010101010103030303030303030407D6
:1002000007070C0C0C0C0C0C0C0C0202020206066C
:100210000606060606060B0B0B0B0B0B0B0B000062
:100220002200250028002B002E003100340002019E
:100230000000050108010B01000021002400270037
:100240002A002D00300033000101000004010701E5
:100250000A0111241FBECFEFD1E2DEBFCDBF00E007
:100260000CBF12E0A0E0B2E0E8EEF6E000E00BBF69
:1002700002C007900D92AE30B107D9F722E0AEE090
:10028000B2E001C01D92A831B207E1F70E945C0301
:100290000C9472030C94000061E080E40E94EC0274
:1002A00061E081E40E94EC0261E082E40E94EC02E1
:1002B00061E083E40E94EC0261E084E40E94EC02CD
:1002C00061E085E40C94EC02E0910E02EE0FFF0B6E
:1002D000EF5FFD4F61E080810E94250368EC70E0D4
:1002E00080E090E00E94FC01E0910E02EE0FFF0B17
:1002F000EF5FFD4F60E080810E94250390910E0228
:10030000953011F0911105C0809100028195809384
:10031000000280910002890F80930E0208951F92BF
:100320000F920FB60F9211242F933F938F939F93A9
:10033000AF93BF938091100290911102A09112028D
:10034000B091130230910F0223E0230F2D3720F4D8
:100350000196A11DB11D05C026E8230F0296A11D1F
:10036000B11D20930F028093100290931102A0936D
:100370001202B09313028091140290911502A09181
:100380001602B09117020196A11DB11D80931402AF
:1003900090931502A0931602B0931702BF91AF91EC
:1003A0009F918F913F912F910F900FBE0F901F90B3
:1003B00018953FB7F8948091140290911502A0917E
:1003C0001602B091170226B5A89B05C02F3F19F061
:1003D0000196A11DB11D3FBF6627782F892F9A2F47
:1003E000620F711D811D911D42E0660F771F881FEE
:1003F000991F4A95D1F708958F929F92AF92BF921D
:10040000CF92DF92EF92FF926B017C010E94D901A3
:100410004B015C01C114D104E104F104F1F00E942C
:100420006B030E94D901681979098A099B09683E02
:1004300073408105910570F321E0C21AD108E108EB
:10044000F10888EE880E83E0981EA11CB11CC1142F
:10045000D104E104F10429F7DDCFFF90EF90DF90A4
:10046000CF90BF90AF909F908F900895789484B56F
:10047000826084BD84B5816084BD85B5826085BDA0
:1004800085B5816085BDEEE6F0E080818160808386
:10049000E1E8F0E010828081826080838081816069
:1004A0008083E0E8F0E0808181608083E1EBF0E030
:1004B000808184608083E0EBF0E0808181608083D4
:1004C000E1E9F0E0808182608083808181608083C7
:1004D000E0E9F0E0808181608083E1EAF0E0808102
:1004E00082608083808181608083E0EAF0E08081A7
:1004F00081608083E1E2F1E080818260808380819D
:1005000081608083E0E2F1E0808181608083EAE7BE
:10051000F0E080818460808380818260808380813C
:10052000816080838081806880831092C1000895FB
:1005300090E0FC013197E231F10508F04CC0EE5833
:10054000FF4F0C946C03809180008F7703C08091E3
:1005500080008F7D80938000089580918000877F48
:10056000F9CF84B58F7702C084B58F7D84BD08959F
:100570008091B0008F7703C08091B0008F7D809311
:10058000B0000895809190008F7707C0809190000F
:100590008F7D03C080919000877F809390000895A5
:1005A0008091A0008F7707C08091A0008F7D03C04D
:1005B0008091A000877F8093A00008958091200102
:1005C0008F7707C0809120018F7D03C0809120012B
:1005D000877F809320010895CF93DF9390E0FC0103
:1005E000EE56FE4F2491FC01E852FE4F8491882381
:1005F00049F190E0880F991FFC01E85CFD4FA5913F
:10060000B491825E9D4FFC01C591D4919FB7611159
:1006100008C0F8948C91209582238C938881822342
:100620000AC0623051F4F8948C91322F30958323B4
:100630008C938881822B888304C0F8948C91822BC0
:100640008C939FBFDF91CF9108950F931F93CF930A
:10065000DF931F92CDB7DEB7282F30E0F901E45BBE
:10066000FE4F8491F901EE56FE4F1491F901E852C4
:10067000FE4F04910023C9F0882321F069830E9472
:1006800098026981E02FF0E0EE0FFF1FE25EFD4F60
:10069000A591B4919FB7F8948C91611103C0109506
:1006A000812301C0812B8C939FBF0F90DF91CF914D
:1006B0001F910F91089508950E9436020E945B03D6
:1006C0000E944C01C0E0D0E00E9464012097E1F359
:1006D0000E940000F9CF0895EE0FFF1F0590F491DE
:0806E000E02D1994F894FFCFFE
:0E06E800FF4000410042004300440045000076
:00000001FF
