:100000000C9487000C94B8000C94B8000C94B800C1
:100010000C94B8000C94B8000C94B8000C94B80080
:100020000C94B8000C94B8000C94B8000C94B80070
:100030000C94B8000C94B8000C94B8000C94B80060
:100040000C94B8000C94B8000C94B8000C94B80050
:100050000C94B8000C94B8000C94B8000C944C04A8
:100060000C94B8000C946F020C94A5020C94B80088
:100070000C94B8000C94B8000C94B8000C94B80020
:100080000C94B8000C94B8000C94B8000C94B80010
:100090000C94B8000C94B8000C94B8000C94B80000
:1000A0000C94B8000C94B8000C94B8000C94B800F0
:1000B0000C94B8000C94B8000C94B8000C94B800E0
:1000C0000C94B8000C94B8000C94B8000C94B800D0
:1000D0000C94B8000C94B8000C94B8000C94B800C0
:1000E0000C94B8000C94FB000C94CF020C94CA0042
:1000F0000C94A8010C942C030C9486010C9406011A
:100100000C94D9020C9428010C941401D9021124E6
:100110001FBECFEFD1E2DEBFCDBF00E00CBF12E0CB
:10012000A0E0B2E0E0E4FAE000E00BBF02C007901C
:100130000D92A236B107D9F723E0A2E6B2E001C0E2
:100140001D92A830B207E1F711E0CEE0D1E000E067
:1001500006C022970109FE010BBF0E941A05CC3090
:10016000D10780E00807A9F70E941D030C941E0523
:100170000C94000026E040E855E260E070E082E682
:1001800092E00E940D0260E072E082E692E00C9440
:1001900077030895CF93DF9382E692E00E941401E3
:1001A000C82F6EE072E082E692E00E946A036C2F34
:1001B00082E692E00E9489036AE172E082E692E0C0
:1001C0000E946A03DD27C7FDD0954AE050E0BE01DA
:1001D00082E692E00E94340462E372E082E692E0FA
:1001E0000E94770342E050E0BE0182E692E0DF9198
:1001F000CF910C943404FC01818D228D90E0805CC1
:100200009F4F821B91098F7399270895FC01918D4F
:10021000828D981731F0828DE80FF11D858D90E069
:1002200008958FEF9FEF0895FC01918D828D9817AF
:1002300061F0828DDF01A80FB11D5D968C91928DCA
:100240009F5F9F73928F90E008958FEF9FEF0895C7
:100250008FEC92E0892B41F08AEC90E0892B21F021
:100260000E94CF02811125C080E090E0892B41F0EF
:1002700080E090E0892B21F00E94000081111CC0D9
:1002800080E090E0892B41F080E090E0892B21F024
:100290000E940000811113C080E090E0892BA1F042
:1002A00080E090E0892B81F00E94000081110AC05B
:1002B00008950E94CA00D8CF0E940000E1CF0E949A
:1002C0000000EACF0C9400000895FC01848DDF014A
:1002D000A80FB11DA35ABF4F2C91848D90E00196B9
:1002E0008F739927848FA689B7892C93A089B189A8
:1002F0008C9180648C93938D848D981306C00288B2
:10030000F389E02D80818F7D80830895CF93DF93E3
:10031000EC01888D8823C9F0EA89FB89808185FDFD
:1003200005C0A889B9898C9186FD0FC00FB607FC5E
:10033000F5CF808185FFF2CFA889B9898C9185FF9F
:10034000EDCFCE010E946501E7CFDF91CF910895F7
:10035000CF92DF92FF920F931F93CF93DF931F9261
:10036000CDB7DEB76C0181E0D60158968C935897D3
:100370005B969C915B975C968C915C97981307C0F9
:100380005096ED91FC915197808185FD2EC0F6012C
:10039000038D10E00F5F1F4F0F731127F02EF60132
:1003A000848DF81211C00FB607FCF9CFD601509614
:1003B000ED91FC915197808185FFF1CFC601698352
:1003C0000E9465016981EBCF838DE80FF11DE35A2F
:1003D000FF4F6083D6015B960C935B975296ED912D
:1003E000FC915397808180620CC0D6015696ED91A6
:1003F000FC91579760835096ED91FC9151978081C5
:100400008064808381E090E00F90DF91CF911F9115
:100410000F91FF90DF90CF900895BF92CF92DF921F
:10042000EF92FF92CF93DF93EC016A017B01B22E32
:10043000E889F98982E08083411581EE58076105DA
:100440007105A1F060E079E08DE390E0A7019601ED
:100450000E94F804215031094109510956954795E8
:1004600037952795211580E1380798F0E889F989B3
:10047000108260E874E88EE190E0A70196010E9486
:10048000F80421503109410951095695479537958E
:100490002795EC85FD853083EE85FF852083188EBA
:1004A000EC89FD89B082EA89FB8980818061808343
:1004B000EA89FB89808188608083EA89FB89808161
:1004C00080688083EA89FB8980818F7D8083DF91CA
:1004D000CF91FF90EF90DF90CF90BF9008951F9243
:1004E0000F920FB60F9211240BB60F922F938F938A
:1004F0009F93EF93FF93E0917202F09173028081DA
:10050000E0917802F091790282FD12C09081809191
:100510007B028F5F8F7320917C02821751F0E091F4
:100520007B02F0E0EE59FD4F958F80937B0201C076
:100530008081FF91EF919F918F912F910F900BBE32
:100540000F900FBE0F901F9018951F920F920FB62D
:100550000F9211240BB60F922F933F934F935F93FB
:100560006F937F938F939F93AF93BF93EF93FF937B
:1005700082E692E00E946501FF91EF91BF91AF91F9
:100580009F918F917F916F915F914F913F912F91AB
:100590000F900BBE0F900FBE0F901F90189582E624
:1005A00092E00E94FB0021E0892B09F420E0822FD9
:1005B0000895109265021092640288EE93E0A0E024
:1005C000B0E08093660290936702A0936802B093B4
:1005D000690285E492E0909363028093620285EC65
:1005E00090E090936F0280936E0284EC90E0909381
:1005F00071028093700280EC90E09093730280937C
:10060000720281EC90E0909375028093740282EC08
:1006100090E0909377028093760286EC90E090933E
:1006200079028093780210927B0210927C021092E1
:100630007D0210927E02089508950E9496040E9401
:100640001C030E94BA00C8E2D1E00E94C9002097B2
:10065000E1F30E942801F9CFCF92DF92EF92FF924F
:100660000F931F93CF93DF937C016A01EB0100E0AE
:1006700010E00C151D0571F06991D701ED91FC9109
:100680000190F081E02DC7011995892B19F00F5FBA
:100690001F4FEFCFC801DF91CF911F910F91FF90B6
:1006A000EF90DF90CF9008956115710581F0DB0127
:1006B0000D900020E9F7AD0141505109461B570B41
:1006C000DC01ED91FC910280F381E02D199480E032
:1006D00090E008950C945403DC01ED91FC9101909D
:1006E000F081E02D199461E572E00C9454030F93AE
:1006F0001F93CF93DF93EC010E9454038C01CE0132
:100700000E947303800F911FDF91CF911F910F9172
:1007100008950F931F93CF93DF93EC010E946C0316
:100720008C01CE010E947303800F911FDF91CF9146
:100730001F910F9108958F929F92AF92BF92DF9277
:10074000EF92FF920F931F93CF93DF93CDB7DEB756
:10075000A1970FB6F894DEBF0FBECDBF7C01F42F7A
:10076000D52ECB0119A2223008F42AE08E010F5DAC
:100770001F4F822E912CA12CB12C6F2F7D2DA50106
:1007800094010E94F804F22FD32ECA0101501109DE
:100790006A3014F4E0E301C0E7E3E60FD801EC931C
:1007A000232B242B252B49F7B801C7010E945403A2
:1007B000A1960FB6F894DEBF0FBECDBFDF91CF91EB
:1007C0001F910F91FF90EF90DF90BF90AF909F909F
:1007D0008F900895CF92DF92EF92FF920F931F9325
:1007E000CF93DF93EC016A017B012115310579F488
:1007F000E881F9810190F081E02D642FDF91CF91A4
:100800001F910F91FF90EF90DF90CF9019942A30B5
:100810003105E9F477FF1AC06DE20E946C038C0188
:1008200044275527BA014C195D096E097F092AE052
:10083000CE010E949B03800F911FDF91CF911F91EA
:100840000F91FF90EF90DF90CF9008952AE0B701CD
:10085000A601CE01DF91CF911F910F91FF90EF90F4
:10086000DF90CF900C949B030F931F93CF93DF9354
:10087000EC019A01AB01662757FD6095762F0E9427
:10088000EA038C01CE010E947303800F911FDF9158
:10089000CF911F910F9108951F920F920FB60F9253
:1008A00011242F933F938F939F93AF93BF93809186
:1008B000000390910103A0910203B09103033091D2
:1008C000FF0223E0230F2D3720F40196A11DB11D57
:1008D00005C026E8230F0296A11DB11D2093FF023B
:1008E0008093000390930103A0930203B09303034A
:1008F0008091040390910503A0910603B091070332
:100900000196A11DB11D8093040390930503A0934C
:100910000603B0930703BF91AF919F918F913F91D1
:100920002F910F900FBE0F901F901895789484B55B
:10093000826084BD84B5816084BD85B5826085BDDB
:1009400085B5816085BDEEE6F0E0808181608083C1
:10095000E1E8F0E0108280818260808380818160A4
:100960008083E0E8F0E0808181608083E1EBF0E06B
:10097000808184608083E0EBF0E08081816080830F
:10098000E1E9F0E080818260808380818160808302
:10099000E0E9F0E0808181608083E1EAF0E080813D
:1009A00082608083808181608083E0EAF0E08081E2
:1009B00081608083E1E2F1E08081826080838081D8
:1009C00081608083E0E2F1E0808181608083EAE7FA
:1009D000F0E0808184608083808182608083808178
:1009E000816080838081806880831092C100089537
:1009F000A1E21A2EAA1BBB1BFD010DC0AA1FBB1F23
:100A0000EE1FFF1FA217B307E407F50720F0A21B94
:100A1000B30BE40BF50B661F771F881F991F1A9401
:100A200069F760957095809590959B01AC01BD012B
:100A3000CF0108950790F691E02D1994F894FFCF17
:100A400048656C6C6F2C20576F726C642100526586
:100A5000636965766564203D2000202020202041C8
:100A6000637475616C20627974652076616C75655C
:100A7000200020202020202862696E6172792920C0
:100A80000000000000A8012C03FB001401060186F1
:100A9000010D0A006E616E00696E66006F76660079
:020AA0002E0026
:00000001FF
