:100000000C944B010C94CF030C94FA030C9425042C
:100010000C9450040C947B040C94A6040C94D1040E
:100020000C94FC040C947C010C947C010C947C01D9
:100030000C947C010C947C010C947C010C947C014C
:100040000C947C010C947C010C947C010C947C013C
:100050000C947C010C947C010C947C010C9427057D
:100060000C947C010C947C010C947C010C947C011C
:100070000C947C010C947C010C947C010C947C010C
:100080000C947C010C947C010C947C010C947C01FC
:100090000C947C010C947C010C947C010C947C01EC
:1000A0000C947C010C947C010C947C010C947C01DC
:1000B0000C947C010C947C010C947C010C947C01CC
:1000C0000C947C010C947C010C947C010C947C01BC
:1000D0000C947C010C947C010C947C010C947C01AC
:1000E0000C947C01A90373037B0387039403B5037A
:1000F000C203F705FA05E905ED05F3053106FE052E
:10010000020608060C06100616061A061E0631061A
:10011000240628062C060C9410060C9402060C9457
:1001200088010C947E010C9416060C94FA050C942C
:100130002C060C94C2030C94FE050C941A060C9425
:10014000F3050C947B030C9494030C94E9050C9434
:1001500031060C945D030C94F7050C941E060C9468
:10016000A9030C9424060C9473030C9408060C94B5
:1001700087030C94B5030C94ED050C940C060C94B9
:10018000B1060C9428060C9457030C94CB01000084
:100190000A0B02090C0D0E08070304010000000001
:1001A000000000000000000000000000000000004F
:1001B000000000000000000000001211100000000C
:1001C000000000000000000000000000000000002F
:1001D000000000000102102020080810204010201C
:1001E00040800201020108040201010204081020FB
:1001F00040808040201008040201800402018040F9
:100200002010080402010804020101020408102061
:1002100040800102040810204080050505050705FF
:1002200008080808020202020A0A08080404040472
:10023000010101010101010103030303030303039E
:10024000040707070C0C0C0C0C0C0C0C020202022D
:1002500006060606060606060B0B0B0B0B0B0B0B16
:1002600000002200250028002B002E003100340061
:1002700002010000050108010B010000210024001B
:1002800027002A002D003000330001010000040186
:1002900007010A01CB0111241FBECFEFD1E2DEBF5F
:1002A000CDBF00E00CBF12E0A0E0B2E0EEE8FFE05E
:1002B00000E00BBF02C007900D92AA33B107D9F737
:1002C00022E0AAE3B2E001C01D92AB35B207E1F72C
:1002D00012E0C6E9D2E000E006C022970109FE0163
:1002E0000BBF0E94C107C439D10780E00807A9F7F6
:1002F0000E94A2060C94C5070C9400008091000295
:10030000909101020196909301028093000208955A
:1003100080910002909101020197909301028093D5
:100320000002089520E042E060E18AE392E00E944A
:10033000980262E172E08AE392E00E94EF0662E0D6
:1003400083E00E94320662E082E00E94320642E0D0
:1003500050E06EE771E080E00E945E0342E050E012
:1003600068E871E081E00C945E0341E060E08AE3BC
:1003700092E00E947E0260910002709101024AE0C8
:1003800050E08AE392E00E94910766E272E08AE31D
:1003900092E00C94EF06AF92CF92EF920F9384E12C
:1003A000A82E93E1C92E22E1E22E01E120E14FE0E7
:1003B0006EE08AE392E00E9436030F91EF90CF90B7
:1003C000AF900895CF93DF93EC0160E08E810E949F
:1003D0006B0681E090E00E94710561E08E810E94D1
:1003E0006B0681E090E00E94710560E08E810E94C2
:1003F0006B0684E690E0DF91CF910C947105EF924B
:10040000FF920F931F93CF93DF938C01C0E0D0E056
:10041000E62EF12CB7010C2E02C0759567950A9453
:10042000E2F76170F801EC0FFD1F87810E946B06F7
:100430002196C430D10571F7C801DF91CF911F918A
:100440000F91FF90EF900C94E201EF92FF920F93C7
:100450001F93CF93DF938C01C0E0D0E0E62EF12C08
:10046000B7010C2E02C0759567950A94E2F761708A
:10047000F801EC0FFD1F87810E946B062196C830A2
:10048000D10571F7C801DF91CF911F910F91FF90B6
:10049000EF900C94E2011F93CF93DF93EC01162FA2
:1004A000642F8C810E946B068D818F3F19F060E074
:1004B0000E946B068F85612F84FF06C0CE01DF91FD
:1004C000CF911F910C94250270E084E0759567959B
:1004D0008A95E1F7CE010E94FF01612FCE01DF91E5
:1004E000CF911F910C94FF0140E00C944B0261E00E
:1004F0000E94740280ED97E00C947105443008F07E
:1005000043E0FC012389421710F04FEF420FFC013A
:10051000E40FF11D2489260F2068622F0C947402C9
:10052000FC016089262F2460208B6C600C9474027F
:100530000F931F93CF93DF93EC01423018F08F8518
:1005400088608F874B8B1C8A80E48D8B6E8B70E06C
:10055000605C7F4F6F8B222329F0413019F48F8527
:1005600084608F8761E08C810E9432068D818F3F8D
:1005700019F061E00E94320661E08E810E9432062D
:1005800000E010E08F8584FF03C088E090E002C0A7
:1005900084E090E00817190754F4FE01E00FF11F02
:1005A00061E087810E9432060F5F1F4FEBCF80E52D
:1005B00093EC0E94710560E08C810E946B0660E004
:1005C0008E810E946B068D818F3F19F060E00E9442
:1005D0006B066F8564FD1DC063E0CE010E94FF01C4
:1005E00084E991E10E94710563E0CE010E94FF0160
:1005F00084E991E10E94710563E0CE010E94FF0150
:1006000086E990E00E94710562E0CE010E94FF0140
:1006100016C06062CE010E94740284E991E10E94DA
:1006200071056F856062CE010E94740286E990E0D8
:100630000E9471056F856062CE010E9474026F8511
:100640006062CE010E94740284E0888BCE010E9419
:100650009002CE010E94770282E0898B66E0CE0193
:10066000DF91CF911F910F910C947402AF92CF92B2
:10067000EF920F93FC011382128286E392E0918342
:1006800080836483458326830783E086C186A286B0
:100690001386148615861686178620E041E060E1F1
:1006A000CF010F91EF90CF90AF900C94980241E062
:1006B0000E944B0281E090E008950895883008F090
:1006C0006DC0E82FF0E0EE0FFF1FEE5FFD4F71836E
:1006D000608390E0FC013197E730F10590F5EE582A
:1006E000FF4F0C94BB07809169008C7F842B809313
:1006F0006900E89A089580916900440F551F440FDE
:10070000551F837F842B80936900E99A0895809117
:10071000690074E0440F551F7A95E1F78F7C842BB4
:1007200080936900EA9A08958091690066E0440F19
:10073000551F6A95E1F78F73842B80936900EB9ABC
:10074000089580916A008C7F842B80936A00EC9AD4
:10075000089580916A00440F551F440F551F837FF1
:10076000842B80936A00ED9A089580916A0024E0BA
:10077000440F551F2A95E1F78F7C842B80936A00E4
:10078000EE9A089580916A0096E0440F551F9A955D
:10079000E1F78F73842B80936A00EF9A08951F927C
:1007A0000F920FB60F9211240BB60F922F933F9317
:1007B0004F935F936F937F938F939F93AF93BF9369
:1007C000EF93FF93E0910602F09107021995FF91D4
:1007D000EF91BF91AF919F918F917F916F915F91B9
:1007E0004F913F912F910F900BBE0F900FBE0F9026
:1007F0001F9018951F920F920FB60F9211240BB6EF
:100800000F922F933F934F935F936F937F938F93A9
:100810009F93AF93BF93EF93FF93E0910802F09102
:1008200009021995FF91EF91BF91AF919F918F911F
:100830007F916F915F914F913F912F910F900BBEE0
:100840000F900FBE0F901F9018951F920F920FB62A
:100850000F9211240BB60F922F933F934F935F93F8
:100860006F937F938F939F93AF93BF93EF93FF9378
:10087000E0910A02F0910B021995FF91EF91BF915F
:10088000AF919F918F917F916F915F914F913F9128
:100890002F910F900BBE0F900FBE0F901F901895C9
:1008A0001F920F920FB60F9211240BB60F922F9337
:1008B0003F934F935F936F937F938F939F93AF93E8
:1008C000BF93EF93FF93E0910C02F0910D02199505
:1008D000FF91EF91BF91AF919F918F917F916F9118
:1008E0005F914F913F912F910F900BBE0F900FBED4
:1008F0000F901F9018951F920F920FB60F92112410
:100900000BB60F922F933F934F935F936F937F9309
:100910008F939F93AF93BF93EF93FF93E091020266
:10092000F09103021995FF91EF91BF91AF919F91C3
:100930008F917F916F915F914F913F912F910F9088
:100940000BBE0F900FBE0F901F9018951F920F9225
:100950000FB60F9211240BB60F922F933F934F9324
:100960005F936F937F938F939F93AF93BF93EF9317
:10097000FF93E0910402F09105021995FF91EF9128
:10098000BF91AF919F918F917F916F915F914F91A7
:100990003F912F910F900BBE0F900FBE0F901F90A5
:1009A00018951F920F920FB60F9211240BB60F924B
:1009B0002F933F934F935F936F937F938F939F9367
:1009C000AF93BF93EF93FF93E0910E02F0910F026C
:1009D0001995FF91EF91BF91AF919F918F917F9169
:1009E0006F915F914F913F912F910F900BBE0F90A0
:1009F0000FBE0F901F9018951F920F920FB60F9277
:100A000011240BB60F922F933F934F935F936F93E5
:100A10007F938F939F93AF93BF93EF93FF93E09157
:100A20001002F09111021995FF91EF91BF91AF91D2
:100A30009F918F917F916F915F914F913F912F91F6
:100A40000F900BBE0F900FBE0F901F9018951F9226
:100A50000F920FB60F9211242F933F938F939F9372
:100A6000AF93BF938091530290915402A09155028D
:100A7000B09156023091520223E0230F2D3720F41B
:100A80000196A11DB11D05C026E8230F0296A11DE8
:100A9000B11D209352028093530290935402A0936D
:100AA0005502B09356028091570290915802A0913E
:100AB0005902B0915A020196A11DB11D80935702AF
:100AC00090935802A0935902B0935A02BF91AF91EC
:100AD0009F918F913F912F910F900FBE0F901F907C
:100AE00018958230910538F0880F991F880F991F4B
:100AF00005970197F1F70895789484B5826084BDD5
:100B000084B5816084BD85B5826085BD85B5816011
:100B100085BDEEE6F0E0808181608083E1E8F0E071
:100B20001082808182608083808181608083E0E8A0
:100B3000F0E0808181608083E1EBF0E0808184607F
:100B40008083E0EBF0E0808181608083E1E9F0E088
:100B5000808182608083808181608083E0E9F0E031
:100B6000808181608083E1EAF0E08081826080831F
:100B7000808181608083E0EAF0E080818160808311
:100B8000E1E2F1E080818260808380818160808306
:100B9000E0E2F1E0808181608083EAE7F0E080813B
:100BA0008460808380818260808380818160808393
:100BB0008081806880831092C100089590E0FC01DC
:100BC0003197E231F10508F04CC0E758FF4F0C9423
:100BD000BB07809180008F7703C0809180008F7D5C
:100BE00080938000089580918000877FF9CF84B53D
:100BF0008F7702C084B58F7D84BD08958091B00049
:100C00008F7703C08091B0008F7D8093B0000895EE
:100C1000809190008F7707C0809190008F7D03C0F6
:100C200080919000877F8093900008958091A0002C
:100C30008F7707C08091A0008F7D03C08091A000B6
:100C4000877F8093A0000895809120018F7707C04F
:100C5000809120018F7D03C080912001877F809348
:100C600020010895CF93DF9390E0FC01EC52FE4FFA
:100C70002491FC01E65EFD4F8491882349F190E0C8
:100C8000880F991FFC01E658FD4FA591B491805A39
:100C90009D4FFC01C591D4919FB7611108C0F89494
:100CA0008C91209582238C93888182230AC06230A4
:100CB00051F4F8948C91322F309583238C93888152
:100CC000822B888304C0F8948C91822B8C939FBFD5
:100CD000DF91CF9108950F931F93CF93DF931F92CE
:100CE000CDB7DEB7282F30E0F901E257FE4F8491EF
:100CF000F901EC52FE4F1491F901E65EFD4F0491AB
:100D00000023C9F0882321F069830E94DE056981F0
:100D1000E02FF0E0EE0FFF1FE05AFD4FA591B491D8
:100D20009FB7F8948C91611103C01095812301C085
:100D3000812B8C939FBF0F90DF91CF911F910F91CB
:100D4000089508950E947C050E94A1060E949201C8
:100D5000C0E0D0E00E94B5012097E1F30E940000BE
:100D6000F9CFCF92DF92EF92FF920F931F93CF9321
:100D7000DF937C016A01EB0100E010E00C151D051A
:100D800071F06991D701ED91FC910190F081E02D16
:100D9000C7011995892B19F00F5F1F4FEFCFC801BD
:100DA000DF91CF911F910F91FF90EF90DF90CF9047
:100DB00008956115710581F0DB010D900020E9F7C0
:100DC000AD0141505109461B570BDC01ED91FC91DF
:100DD0000280F381E02D199480E090E008950C9456
:100DE000D906DC01ED91FC910190F081E02D199480
:100DF0008F929F92AF92BF92DF92EF92FF920F93EA
:100E00001F93CF93DF93CDB7DEB7A1970FB6F894BA
:100E1000DEBF0FBECDBF7C01F42FD52ECB0119A2B2
:100E2000223008F42AE08E010F5D1F4F822E912C94
:100E3000A12CB12C6F2F7D2DA50194010E94990743
:100E4000F22FD32ECA01015011096A3014F4E0E3E5
:100E500001C0E7E3E60FD801EC93232B242B252BCD
:100E600049F7B801C7010E94D906A1960FB6F894B8
:100E7000DEBF0FBECDBFDF91CF911F910F91FF90CD
:100E8000EF90DF90BF90AF909F908F900895CF929A
:100E9000DF92EF92FF920F931F93CF93DF93EC01BA
:100EA0006A017B012115310579F4E881F98101900E
:100EB000F081E02D642FDF91CF911F910F91FF9072
:100EC000EF90DF90CF9019942A303105E9F477FF45
:100ED0001AC06DE20E94F1068C0144275527BA0121
:100EE0004C195D096E097F092AE0CE010E94F806BF
:100EF000800F911FDF91CF911F910F91FF90EF9085
:100F0000DF90CF9008952AE0B701A601CE01DF91CE
:100F1000CF911F910F91FF90EF90DF90CF900C94A5
:100F2000F8069A01AB01662757FD6095762F0C9461
:100F30004707A1E21A2EAA1BBB1BFD010DC0AA1F69
:100F4000BB1FEE1FFF1FA217B307E407F50720F032
:100F5000A21BB30BE40BF50B661F771F881F991FAD
:100F60001A9469F760957095809590959B01AC01F6
:100F7000BD01CF010895EE0FFF1F0590F491E02D04
:0E0F800019940790F691E02D1994F894FFCF84
:100F8E0015005D035D035D035D035D035D035D039E
:100F9E005D034D61747468657720205363686163E7
:100FAE006B2069732100207965617273206F6C6408
:0A0FBE002E00000000005703B106EA
:00000001FF
